{
  "_format": "hh-sol-artifact-1",
  "contractName": "EEALienNFT",
  "sourceName": "contracts/EEAlienNFT.sol",
  "abi": [
    {
      "inputs": [],
      "stateMutability": "nonpayable",
      "type": "constructor"
    },
    {
      "anonymous": false,
      "inputs": [
        {
          "indexed": true,
          "internalType": "address",
          "name": "owner",
          "type": "address"
        },
        {
          "indexed": true,
          "internalType": "address",
          "name": "approved",
          "type": "address"
        },
        {
          "indexed": true,
          "internalType": "uint256",
          "name": "tokenId",
          "type": "uint256"
        }
      ],
      "name": "Approval",
      "type": "event"
    },
    {
      "anonymous": false,
      "inputs": [
        {
          "indexed": true,
          "internalType": "address",
          "name": "owner",
          "type": "address"
        },
        {
          "indexed": true,
          "internalType": "address",
          "name": "operator",
          "type": "address"
        },
        {
          "indexed": false,
          "internalType": "bool",
          "name": "approved",
          "type": "bool"
        }
      ],
      "name": "ApprovalForAll",
      "type": "event"
    },
    {
      "anonymous": false,
      "inputs": [
        {
          "indexed": false,
          "internalType": "string",
          "name": "metadata",
          "type": "string"
        }
      ],
      "name": "GetMetadata",
      "type": "event"
    },
    {
      "anonymous": false,
      "inputs": [
        {
          "indexed": false,
          "internalType": "address",
          "name": "sender",
          "type": "address"
        },
        {
          "indexed": false,
          "internalType": "uint256",
          "name": "tokenId",
          "type": "uint256"
        },
        {
          "indexed": false,
          "internalType": "string",
          "name": "tokenSvg",
          "type": "string"
        }
      ],
      "name": "NewEEALienNFTMinted",
      "type": "event"
    },
    {
      "anonymous": false,
      "inputs": [
        {
          "indexed": false,
          "internalType": "string",
          "name": "message",
          "type": "string"
        }
      ],
      "name": "NoMoreTokens",
      "type": "event"
    },
    {
      "anonymous": false,
      "inputs": [
        {
          "indexed": false,
          "internalType": "uint256[]",
          "name": "items",
          "type": "uint256[]"
        }
      ],
      "name": "OwnedItemsByAddress",
      "type": "event"
    },
    {
      "anonymous": false,
      "inputs": [
        {
          "indexed": false,
          "internalType": "uint256",
          "name": "totalSupply",
          "type": "uint256"
        }
      ],
      "name": "TotalSupply",
      "type": "event"
    },
    {
      "anonymous": false,
      "inputs": [
        {
          "indexed": true,
          "internalType": "address",
          "name": "from",
          "type": "address"
        },
        {
          "indexed": true,
          "internalType": "address",
          "name": "to",
          "type": "address"
        },
        {
          "indexed": true,
          "internalType": "uint256",
          "name": "tokenId",
          "type": "uint256"
        }
      ],
      "name": "Transfer",
      "type": "event"
    },
    {
      "inputs": [
        {
          "internalType": "address",
          "name": "to",
          "type": "address"
        },
        {
          "internalType": "uint256",
          "name": "tokenId",
          "type": "uint256"
        }
      ],
      "name": "approve",
      "outputs": [],
      "stateMutability": "nonpayable",
      "type": "function"
    },
    {
      "inputs": [
        {
          "internalType": "address",
          "name": "owner",
          "type": "address"
        }
      ],
      "name": "balanceOf",
      "outputs": [
        {
          "internalType": "uint256",
          "name": "",
          "type": "uint256"
        }
      ],
      "stateMutability": "view",
      "type": "function"
    },
    {
      "inputs": [
        {
          "internalType": "uint256",
          "name": "tokenId",
          "type": "uint256"
        }
      ],
      "name": "getApproved",
      "outputs": [
        {
          "internalType": "address",
          "name": "",
          "type": "address"
        }
      ],
      "stateMutability": "view",
      "type": "function"
    },
    {
      "inputs": [],
      "name": "getMyOwnedTokens",
      "outputs": [
        {
          "internalType": "uint256[]",
          "name": "",
          "type": "uint256[]"
        }
      ],
      "stateMutability": "nonpayable",
      "type": "function"
    },
    {
      "inputs": [],
      "name": "getTotalNFTsMintedSoFar",
      "outputs": [
        {
          "internalType": "uint256",
          "name": "",
          "type": "uint256"
        }
      ],
      "stateMutability": "nonpayable",
      "type": "function"
    },
    {
      "inputs": [
        {
          "internalType": "address",
          "name": "owner",
          "type": "address"
        },
        {
          "internalType": "address",
          "name": "operator",
          "type": "address"
        }
      ],
      "name": "isApprovedForAll",
      "outputs": [
        {
          "internalType": "bool",
          "name": "",
          "type": "bool"
        }
      ],
      "stateMutability": "view",
      "type": "function"
    },
    {
      "inputs": [],
      "name": "mintAnNFT",
      "outputs": [],
      "stateMutability": "nonpayable",
      "type": "function"
    },
    {
      "inputs": [],
      "name": "name",
      "outputs": [
        {
          "internalType": "string",
          "name": "",
          "type": "string"
        }
      ],
      "stateMutability": "view",
      "type": "function"
    },
    {
      "inputs": [
        {
          "internalType": "uint256",
          "name": "tokenId",
          "type": "uint256"
        }
      ],
      "name": "ownerOf",
      "outputs": [
        {
          "internalType": "address",
          "name": "",
          "type": "address"
        }
      ],
      "stateMutability": "view",
      "type": "function"
    },
    {
      "inputs": [
        {
          "internalType": "address",
          "name": "from",
          "type": "address"
        },
        {
          "internalType": "address",
          "name": "to",
          "type": "address"
        },
        {
          "internalType": "uint256",
          "name": "tokenId",
          "type": "uint256"
        }
      ],
      "name": "safeTransferFrom",
      "outputs": [],
      "stateMutability": "nonpayable",
      "type": "function"
    },
    {
      "inputs": [
        {
          "internalType": "address",
          "name": "from",
          "type": "address"
        },
        {
          "internalType": "address",
          "name": "to",
          "type": "address"
        },
        {
          "internalType": "uint256",
          "name": "tokenId",
          "type": "uint256"
        },
        {
          "internalType": "bytes",
          "name": "_data",
          "type": "bytes"
        }
      ],
      "name": "safeTransferFrom",
      "outputs": [],
      "stateMutability": "nonpayable",
      "type": "function"
    },
    {
      "inputs": [
        {
          "internalType": "address",
          "name": "operator",
          "type": "address"
        },
        {
          "internalType": "bool",
          "name": "approved",
          "type": "bool"
        }
      ],
      "name": "setApprovalForAll",
      "outputs": [],
      "stateMutability": "nonpayable",
      "type": "function"
    },
    {
      "inputs": [
        {
          "internalType": "bytes4",
          "name": "interfaceId",
          "type": "bytes4"
        }
      ],
      "name": "supportsInterface",
      "outputs": [
        {
          "internalType": "bool",
          "name": "",
          "type": "bool"
        }
      ],
      "stateMutability": "view",
      "type": "function"
    },
    {
      "inputs": [],
      "name": "symbol",
      "outputs": [
        {
          "internalType": "string",
          "name": "",
          "type": "string"
        }
      ],
      "stateMutability": "view",
      "type": "function"
    },
    {
      "inputs": [
        {
          "internalType": "uint256",
          "name": "tokenId",
          "type": "uint256"
        }
      ],
      "name": "tokenURI",
      "outputs": [
        {
          "internalType": "string",
          "name": "",
          "type": "string"
        }
      ],
      "stateMutability": "view",
      "type": "function"
    },
    {
      "inputs": [
        {
          "internalType": "address",
          "name": "from",
          "type": "address"
        },
        {
          "internalType": "address",
          "name": "to",
          "type": "address"
        },
        {
          "internalType": "uint256",
          "name": "tokenId",
          "type": "uint256"
        }
      ],
      "name": "transferFrom",
      "outputs": [],
      "stateMutability": "nonpayable",
      "type": "function"
    }
  ],
  "bytecode": "0x6080604052604051806103c001604052806040518060400160405280600b81526020017f436f756e7465726d616e6400000000000000000000000000000000000000000081525081526020016040518060400160405280600681526020017f50726f6d7074000000000000000000000000000000000000000000000000000081525081526020016040518060400160405280600981526020017f4c756d696e65736365000000000000000000000000000000000000000000000081525081526020016040518060400160405280600881526020017f4d6973636f756e7400000000000000000000000000000000000000000000000081525081526020016040518060400160405280600b81526020017f53796e6368726f6e697a6500000000000000000000000000000000000000000081525081526020016040518060400160405280600981526020017f4275726c6573717565000000000000000000000000000000000000000000000081525081526020016040518060400160405280600881526020017f4f7665726472617700000000000000000000000000000000000000000000000081525081526020016040518060400160405280600581526020017f53636f6c6400000000000000000000000000000000000000000000000000000081525081526020016040518060400160405280600981526020017f436f6361696e697a65000000000000000000000000000000000000000000000081525081526020016040518060400160405280600581526020017f41646d697400000000000000000000000000000000000000000000000000000081525081526020016040518060400160405280600381526020017f496365000000000000000000000000000000000000000000000000000000000081525081526020016040518060400160405280600781526020017f446572616e67650000000000000000000000000000000000000000000000000081525081526020016040518060400160405280600681526020017f4a6f636b6579000000000000000000000000000000000000000000000000000081525081526020016040518060400160405280600a81526020017f43656e7472616c6973650000000000000000000000000000000000000000000081525081526020016040518060400160405280600681526020017f417373756d65000000000000000000000000000000000000000000000000000081525081526020016040518060400160405280600981526020017f56656e74696c617465000000000000000000000000000000000000000000000081525081526020016040518060400160405280600881526020017f5265646f75626c6500000000000000000000000000000000000000000000000081525081526020016040518060400160405280600381526020017f547567000000000000000000000000000000000000000000000000000000000081525081526020016040518060400160405280600681526020017f526166746572000000000000000000000000000000000000000000000000000081525081526020016040518060400160405280600981526020017f436f6d6d696e676c65000000000000000000000000000000000000000000000081525081526020016040518060400160405280600681526020017f426f62626c65000000000000000000000000000000000000000000000000000081525081526020016040518060400160405280600981526020017f426573706174746572000000000000000000000000000000000000000000000081525081526020016040518060400160405280600981526020017f566572646967726973000000000000000000000000000000000000000000000081525081526020016040518060400160405280600581526020017f436c65726b00000000000000000000000000000000000000000000000000000081525081526020016040518060400160405280600b81526020017f6578706f7374756c61746500000000000000000000000000000000000000000081525081526020016040518060400160405280600581526020017f436c75636b00000000000000000000000000000000000000000000000000000081525081526020016040518060400160405280600681526020017f50756e697368000000000000000000000000000000000000000000000000000081525081526020016040518060400160405280600781526020017f50726f626174650000000000000000000000000000000000000000000000000081525081526020016040518060400160405280600781526020017f5265676f7267650000000000000000000000000000000000000000000000000081525081526020016040518060400160405280600681526020017f4d61747572650000000000000000000000000000000000000000000000000000815250815250600890601e6200070a929190620016c8565b50604051806103c001604052806040518060400160405280600a81526020017f436f6e7465787475616c0000000000000000000000000000000000000000000081525081526020016040518060400160405280600881526020017f4865617261626c6500000000000000000000000000000000000000000000000081525081526020016040518060400160405280600b81526020017f48616e646963617070656400000000000000000000000000000000000000000081525081526020016040518060400160405280600581526020017f596f67696300000000000000000000000000000000000000000000000000000081525081526020016040518060400160405280600a81526020017f50726f6a656374696e670000000000000000000000000000000000000000000081525081526020016040518060400160405280600881526020017f53616e6775696e6500000000000000000000000000000000000000000000000081525081526020016040518060400160405280600981526020017f557474657261626c65000000000000000000000000000000000000000000000081525081526020016040518060400160405280600c81526020017f4e6f6e756e696f6e697a6564000000000000000000000000000000000000000081525081526020016040518060400160405280600981526020017f466f757273636f7265000000000000000000000000000000000000000000000081525081526020016040518060400160405280600781526020017f46726f6e74616c0000000000000000000000000000000000000000000000000081525081526020016040518060400160405280600881526020017f56697274756f757300000000000000000000000000000000000000000000000081525081526020016040518060400160405280600881526020017f5072657373696e6700000000000000000000000000000000000000000000000081525081526020016040518060400160405280600881526020017f436974696669656400000000000000000000000000000000000000000000000081525081526020016040518060400160405280600581526020017f416c61727900000000000000000000000000000000000000000000000000000081525081526020016040518060400160405280600681526020017f5374696e6b79000000000000000000000000000000000000000000000000000081525081526020016040518060400160405280600781526020017f546564696f75730000000000000000000000000000000000000000000000000081525081526020016040518060400160405280600881526020017f4e6575726f6e696300000000000000000000000000000000000000000000000081525081526020016040518060400160405280600881526020017f48696768626f726e00000000000000000000000000000000000000000000000081525081526020016040518060400160405280600981526020017f416e6e656c6964616e000000000000000000000000000000000000000000000081525081526020016040518060400160405280600581526020017f4a6164656400000000000000000000000000000000000000000000000000000081525081526020016040518060400160405280600681526020017f536d6f6f7468000000000000000000000000000000000000000000000000000081525081526020016040518060400160405280600381526020017f4e6565000000000000000000000000000000000000000000000000000000000081525081526020016040518060400160405280600681526020017f5665656e7379000000000000000000000000000000000000000000000000000081525081526020016040518060400160405280600881526020017f52657369676e656400000000000000000000000000000000000000000000000081525081526020016040518060400160405280600d81526020017f54756c746963656c6c756c61720000000000000000000000000000000000000081525081526020016040518060400160405280600a81526020017f5265616d616e6c696b650000000000000000000000000000000000000000000081525081526020016040518060400160405280600e81526020017f426961676f6e616c697a61626c6500000000000000000000000000000000000081525081526020016040518060400160405280600981526020017f4f6564686561646564000000000000000000000000000000000000000000000081525081526020016040518060400160405280600f81526020017f41746865726f73636c65726f746963000000000000000000000000000000000081525081526020016040518060400160405280600b81526020017f4879706f7068797369616c000000000000000000000000000000000000000000815250815250600990601e62000e11929190620016c8565b50604051806103c001604052806040518060400160405280600e81526020017f496e7374727563746f727368697000000000000000000000000000000000000081525081526020016040518060400160405280600881526020017f506564646c696e6700000000000000000000000000000000000000000000000081525081526020016040518060400160405280600881526020017f496e76656e746f7200000000000000000000000000000000000000000000000081525081526020016040518060400160405280600a81526020017f537562737065636965730000000000000000000000000000000000000000000081525081526020016040518060400160405280600581526020017f477265656400000000000000000000000000000000000000000000000000000081525081526020016040518060400160405280600681526020017f456967687479000000000000000000000000000000000000000000000000000081525081526020016040518060400160405280600581526020017f4b7661737300000000000000000000000000000000000000000000000000000081525081526020016040518060400160405280600781526020017f46696e616e63650000000000000000000000000000000000000000000000000081525081526020016040518060400160405280600d81526020017f5265706c656e6973686d656e740000000000000000000000000000000000000081525081526020016040518060400160405280600881526020017f446573657274657200000000000000000000000000000000000000000000000081525081526020016040518060400160405280600381526020017f42656c000000000000000000000000000000000000000000000000000000000081525081526020016040518060400160405280600981526020017f5761697374636f6174000000000000000000000000000000000000000000000081525081526020016040518060400160405280600581526020017f436167657200000000000000000000000000000000000000000000000000000081525081526020016040518060400160405280600981526020017f4b6174686172736973000000000000000000000000000000000000000000000081525081526020016040518060400160405280600481526020017f506f6f700000000000000000000000000000000000000000000000000000000081525081526020016040518060400160405280600f81526020017f556e6163636570746162696c697479000000000000000000000000000000000081525081526020016040518060400160405280600681526020017f5365746f6666000000000000000000000000000000000000000000000000000081525081526020016040518060400160405280600781526020017f4765726269756d0000000000000000000000000000000000000000000000000081525081526020016040518060400160405280600a81526020017f437261646c65736f6e670000000000000000000000000000000000000000000081525081526020016040518060400160405280600981526020017f416476616e74616765000000000000000000000000000000000000000000000081525081526020016040518060400160405280600881526020017f4e6f6e6d6574616c00000000000000000000000000000000000000000000000081525081526020016040518060400160405280600b81526020017f416e6e756e636961746f7200000000000000000000000000000000000000000081525081526020016040518060400160405280600a81526020017f446f6f726b65657065720000000000000000000000000000000000000000000081525081526020016040518060400160405280600b81526020017f47656e746f6d626d656e7400000000000000000000000000000000000000000081525081526020016040518060400160405280600981526020017f44797370686f726961000000000000000000000000000000000000000000000081525081526020016040518060400160405280600481526020017f526f74650000000000000000000000000000000000000000000000000000000081525081526020016040518060400160405280600881526020017f466f7265736b696e00000000000000000000000000000000000000000000000081525081526020016040518060400160405280600e81526020017f496e65786f7261626c656e65737300000000000000000000000000000000000081525081526020016040518060400160405280600881526020017f446973677569736500000000000000000000000000000000000000000000000081525081526020016040518060400160405280600581526020017f4361646479000000000000000000000000000000000000000000000000000000815250815250600a90601e62001518929190620016c8565b503480156200152657600080fd5b506040518060400160405280600781526020017f4545416c69656e000000000000000000000000000000000000000000000000008152506040518060400160405280600381526020017f45454100000000000000000000000000000000000000000000000000000000008152508160009080519060200190620015ab9291906200172f565b508060019080519060200190620015c49291906200172f565b505050620015f66040518060600160405280602681526020016200580360269139620015fc60201b620013251760201c565b6200197a565b6200169c816040516024016200161391906200188e565b6040516020818303038152906040527f41304fac000000000000000000000000000000000000000000000000000000007bffffffffffffffffffffffffffffffffffffffffffffffffffffffff19166020820180517bffffffffffffffffffffffffffffffffffffffffffffffffffffffff83818316178352505050506200169f60201b60201c565b50565b60008151905060006a636f6e736f6c652e6c6f679050602083016000808483855afa5050505050565b8280548282559060005260206000209081019282156200171c579160200282015b828111156200171b5782518290805190602001906200170a9291906200172f565b5091602001919060010190620016e9565b5b5090506200172b9190620017c0565b5090565b8280546200173d9062001904565b90600052602060002090601f016020900481019282620017615760008555620017ad565b82601f106200177c57805160ff1916838001178555620017ad565b82800160010185558215620017ad579182015b82811115620017ac5782518255916020019190600101906200178f565b5b509050620017bc9190620017e8565b5090565b5b80821115620017e45760008181620017da919062001807565b50600101620017c1565b5090565b5b8082111562001803576000816000905550600101620017e9565b5090565b508054620018159062001904565b6000825580601f106200182957506200184a565b601f016020900490600052602060002090810190620018499190620017e8565b5b50565b60006200185a82620018b2565b620018668185620018bd565b935062001878818560208601620018ce565b620018838162001969565b840191505092915050565b60006020820190508181036000830152620018aa81846200184d565b905092915050565b600081519050919050565b600082825260208201905092915050565b60005b83811015620018ee578082015181840152602081019050620018d1565b83811115620018fe576000848401525b50505050565b600060028204905060018216806200191d57607f821691505b602082108114156200193457620019336200193a565b5b50919050565b7f4e487b7100000000000000000000000000000000000000000000000000000000600052602260045260246000fd5b6000601f19601f8301169050919050565b613e79806200198a6000396000f3fe608060405234801561001057600080fd5b50600436106101005760003560e01c80636352211e11610097578063b88d4fde11610066578063b88d4fde146102ad578063c87b56dd146102c9578063e985e9c5146102f9578063f3d704c81461032957610100565b80636352211e1461021357806370a082311461024357806395d89b4114610273578063a22cb4651461029157610100565b8063095ea7b3116100d3578063095ea7b3146101a157806323b872dd146101bd57806325ef5e16146101d957806342842e0e146101f757610100565b806301ffc9a714610105578063060475901461013557806306fdde0314610153578063081812fc14610171575b600080fd5b61011f600480360381019061011a91906127c4565b610333565b60405161012c9190612ed9565b60405180910390f35b61013d610415565b60405161014a9190613174565b60405180910390f35b61015b610466565b6040516101689190612ef4565b60405180910390f35b61018b60048036038101906101869190612816565b6104f8565b6040516101989190612df0565b60405180910390f35b6101bb60048036038101906101b69190612788565b61057d565b005b6101d760048036038101906101d29190612682565b610695565b005b6101e16106f5565b6040516101ee9190612e95565b60405180910390f35b610211600480360381019061020c9190612682565b610805565b005b61022d60048036038101906102289190612816565b610825565b60405161023a9190612df0565b60405180910390f35b61025d6004803603810190610258919061261d565b6108d7565b60405161026a9190613174565b60405180910390f35b61027b61098f565b6040516102889190612ef4565b60405180910390f35b6102ab60048036038101906102a6919061274c565b610a21565b005b6102c760048036038101906102c291906126d1565b610a37565b005b6102e360048036038101906102de9190612816565b610a99565b6040516102f09190612ef4565b60405180910390f35b610313600480360381019061030e9190612646565b610beb565b6040516103209190612ed9565b60405180910390f35b610331610c7f565b005b60007f80ac58cd000000000000000000000000000000000000000000000000000000007bffffffffffffffffffffffffffffffffffffffffffffffffffffffff1916827bffffffffffffffffffffffffffffffffffffffffffffffffffffffff191614806103fe57507f5b5e139f000000000000000000000000000000000000000000000000000000007bffffffffffffffffffffffffffffffffffffffffffffffffffffffff1916827bffffffffffffffffffffffffffffffffffffffffffffffffffffffff1916145b8061040e575061040d826113be565b5b9050919050565b60007f91cf34a58a9ed220d9b072639106d1d07251e1791426d2560ab2d6c4ca19a1836104426007611428565b60405161044f9190613174565b60405180910390a16104616007611428565b905090565b60606000805461047590613463565b80601f01602080910402602001604051908101604052809291908181526020018280546104a190613463565b80156104ee5780601f106104c3576101008083540402835291602001916104ee565b820191906000526020600020905b8154815290600101906020018083116104d157829003601f168201915b5050505050905090565b600061050382611436565b610542576040517f08c379a0000000000000000000000000000000000000000000000000000000008152600401610539906130d4565b60405180910390fd5b6004600083815260200190815260200160002060009054906101000a900473ffffffffffffffffffffffffffffffffffffffff169050919050565b600061058882610825565b90508073ffffffffffffffffffffffffffffffffffffffff168373ffffffffffffffffffffffffffffffffffffffff1614156105f9576040517f08c379a00000000000000000000000000000000000000000000000000000000081526004016105f090613134565b60405180910390fd5b8073ffffffffffffffffffffffffffffffffffffffff166106186114a2565b73ffffffffffffffffffffffffffffffffffffffff1614806106475750610646816106416114a2565b610beb565b5b610686576040517f08c379a000000000000000000000000000000000000000000000000000000000815260040161067d90613014565b60405180910390fd5b61069083836114aa565b505050565b6106a66106a06114a2565b82611563565b6106e5576040517f08c379a00000000000000000000000000000000000000000000000000000000081526004016106dc90613154565b60405180910390fd5b6106f0838383611641565b505050565b60607f255543f19c233247acd795f94f5d6039b0527a09acb5ddeef72348fc5c1e9562600b60003373ffffffffffffffffffffffffffffffffffffffff1673ffffffffffffffffffffffffffffffffffffffff1681526020019081526020016000206002016040516107679190612eb7565b60405180910390a1600b60003373ffffffffffffffffffffffffffffffffffffffff1673ffffffffffffffffffffffffffffffffffffffff1681526020019081526020016000206002018054806020026020016040519081016040528092919081815260200182805480156107fb57602002820191906000526020600020905b8154815260200190600101908083116107e7575b5050505050905090565b61082083838360405180602001604052806000815250610a37565b505050565b6000806002600084815260200190815260200160002060009054906101000a900473ffffffffffffffffffffffffffffffffffffffff169050600073ffffffffffffffffffffffffffffffffffffffff168173ffffffffffffffffffffffffffffffffffffffff1614156108ce576040517f08c379a00000000000000000000000000000000000000000000000000000000081526004016108c590613054565b60405180910390fd5b80915050919050565b60008073ffffffffffffffffffffffffffffffffffffffff168273ffffffffffffffffffffffffffffffffffffffff161415610948576040517f08c379a000000000000000000000000000000000000000000000000000000000815260040161093f90613034565b60405180910390fd5b600360008373ffffffffffffffffffffffffffffffffffffffff1673ffffffffffffffffffffffffffffffffffffffff168152602001908152602001600020549050919050565b60606001805461099e90613463565b80601f01602080910402602001604051908101604052809291908181526020018280546109ca90613463565b8015610a175780601f106109ec57610100808354040283529160200191610a17565b820191906000526020600020905b8154815290600101906020018083116109fa57829003601f168201915b5050505050905090565b610a33610a2c6114a2565b83836118a8565b5050565b610a48610a426114a2565b83611563565b610a87576040517f08c379a0000000000000000000000000000000000000000000000000000000008152600401610a7e90613154565b60405180910390fd5b610a9384848484611a15565b50505050565b6060610aa482611436565b610ae3576040517f08c379a0000000000000000000000000000000000000000000000000000000008152600401610ada906130b4565b60405180910390fd5b6000600660008481526020019081526020016000208054610b0390613463565b80601f0160208091040260200160405190810160405280929190818152602001828054610b2f90613463565b8015610b7c5780601f10610b5157610100808354040283529160200191610b7c565b820191906000526020600020905b815481529060010190602001808311610b5f57829003601f168201915b505050505090506000610b8d611a71565b9050600081511415610ba3578192505050610be6565b600082511115610bd8578082604051602001610bc0929190612d12565b60405160208183030381529060405292505050610be6565b610be184611a88565b925050505b919050565b6000600560008473ffffffffffffffffffffffffffffffffffffffff1673ffffffffffffffffffffffffffffffffffffffff16815260200190815260200160002060008373ffffffffffffffffffffffffffffffffffffffff1673ffffffffffffffffffffffffffffffffffffffff16815260200190815260200160002060009054906101000a900460ff16905092915050565b600c60ff16610c8e6007611428565b10610d0d577f91cf34a58a9ed220d9b072639106d1d07251e1791426d2560ab2d6c4ca19a183610cbe6007611428565b604051610ccb9190613174565b60405180910390a17ff163bfedad28690c995f25b04f48f3013f3f57d50efae311d34cd6c58d0a2add604051610d00906130f4565b60405180910390a1611323565b6000610d196007611428565b90506000610e2e826040518060400160405280600681526020017f4d55524d555200000000000000000000000000000000000000000000000000008152506008805480602002602001604051908101604052809291908181526020016000905b82821015610e25578382906000526020600020018054610d9890613463565b80601f0160208091040260200160405190810160405280929190818152602001828054610dc490613463565b8015610e115780601f10610de657610100808354040283529160200191610e11565b820191906000526020600020905b815481529060010190602001808311610df457829003601f168201915b505050505081526020019060010190610d79565b50505050611b2f565b90506000610f43836040518060400160405280600781526020017f464f524e455553000000000000000000000000000000000000000000000000008152506009805480602002602001604051908101604052809291908181526020016000905b82821015610f3a578382906000526020600020018054610ead90613463565b80601f0160208091040260200160405190810160405280929190818152602001828054610ed990613463565b8015610f265780601f10610efb57610100808354040283529160200191610f26565b820191906000526020600020905b815481529060010190602001808311610f0957829003601f168201915b505050505081526020019060010190610e8e565b50505050611b2f565b90506000611058846040518060400160405280600681526020017f53544f4c41530000000000000000000000000000000000000000000000000000815250600a805480602002602001604051908101604052809291908181526020016000905b8282101561104f578382906000526020600020018054610fc290613463565b80601f0160208091040260200160405190810160405280929190818152602001828054610fee90613463565b801561103b5780601f106110105761010080835404028352916020019161103b565b820191906000526020600020905b81548152906001019060200180831161101e57829003601f168201915b505050505081526020019060010190610fa3565b50505050611b2f565b9050600083838360405160200161107193929190612d36565b6040516020818303038152906040529050600060405180610160016040528061012f8152602001613cd561012f9139826040518060400160405280600d81526020017f3c2f746578743e3c2f7376673e000000000000000000000000000000000000008152506040516020016110e993929190612d36565b6040516020818303038152906040529050600061112e8361110984611bc1565b60405160200161111a929190612d89565b604051602081830303815290604052611bc1565b90506000816040516020016111439190612dce565b60405160208183030381529060405290506000816040516020016111679190612d67565b60405160208183030381529060405290506111b66040518060400160405280601581526020017f0a2d2d2d2d2d2d2d2d2d2d2d2d2d2d2d2d2d2d2d2d0000000000000000000000815250611325565b6111bf81611325565b6111fd6040518060400160405280601581526020017f2d2d2d2d2d2d2d2d2d2d2d2d2d2d2d2d2d2d2d2d0a0000000000000000000000815250611325565b7f813487fb9b9c40ebd8a0774f55e1bda33a3dff050f90fccd9d1a7845178137b98160405161122c9190612ef4565b60405180910390a161123e338a611d60565b6112488983611d7e565b600b60003373ffffffffffffffffffffffffffffffffffffffff1673ffffffffffffffffffffffffffffffffffffffff1681526020019081526020016000206002018990806001815401808255809150506001900390600052602060002001600090919091909150556112bb6007611df2565b6112de604051806060016040528060258152602001613cb0602591398a33611e08565b7f3ced5feac6a44dd0b885303e4cf716c64250dbe9f2c5ca8a96ea5f73c3f63ea1338a8660405161131193929190612e57565b60405180910390a15050505050505050505b565b6113bb816040516024016113399190612ef4565b6040516020818303038152906040527f41304fac000000000000000000000000000000000000000000000000000000007bffffffffffffffffffffffffffffffffffffffffffffffffffffffff19166020820180517bffffffffffffffffffffffffffffffffffffffffffffffffffffffff8381831617835250505050611ea7565b50565b60007f01ffc9a7000000000000000000000000000000000000000000000000000000007bffffffffffffffffffffffffffffffffffffffffffffffffffffffff1916827bffffffffffffffffffffffffffffffffffffffffffffffffffffffff1916149050919050565b600081600001549050919050565b60008073ffffffffffffffffffffffffffffffffffffffff166002600084815260200190815260200160002060009054906101000a900473ffffffffffffffffffffffffffffffffffffffff1673ffffffffffffffffffffffffffffffffffffffff1614159050919050565b600033905090565b816004600083815260200190815260200160002060006101000a81548173ffffffffffffffffffffffffffffffffffffffff021916908373ffffffffffffffffffffffffffffffffffffffff160217905550808273ffffffffffffffffffffffffffffffffffffffff1661151d83610825565b73ffffffffffffffffffffffffffffffffffffffff167f8c5be1e5ebec7d5bd14f71427d1e84f3dd0314c0f7b2291e5b200ac8c7c3b92560405160405180910390a45050565b600061156e82611436565b6115ad576040517f08c379a00000000000000000000000000000000000000000000000000000000081526004016115a490612ff4565b60405180910390fd5b60006115b883610825565b90508073ffffffffffffffffffffffffffffffffffffffff168473ffffffffffffffffffffffffffffffffffffffff16148061162757508373ffffffffffffffffffffffffffffffffffffffff1661160f846104f8565b73ffffffffffffffffffffffffffffffffffffffff16145b8061163857506116378185610beb565b5b91505092915050565b8273ffffffffffffffffffffffffffffffffffffffff1661166182610825565b73ffffffffffffffffffffffffffffffffffffffff16146116b7576040517f08c379a00000000000000000000000000000000000000000000000000000000081526004016116ae90612f74565b60405180910390fd5b600073ffffffffffffffffffffffffffffffffffffffff168273ffffffffffffffffffffffffffffffffffffffff161415611727576040517f08c379a000000000000000000000000000000000000000000000000000000000815260040161171e90612fb4565b60405180910390fd5b611732838383611ed0565b61173d6000826114aa565b6001600360008573ffffffffffffffffffffffffffffffffffffffff1673ffffffffffffffffffffffffffffffffffffffff168152602001908152602001600020600082825461178d919061336f565b925050819055506001600360008473ffffffffffffffffffffffffffffffffffffffff1673ffffffffffffffffffffffffffffffffffffffff16815260200190815260200160002060008282546117e4919061328e565b92505081905550816002600083815260200190815260200160002060006101000a81548173ffffffffffffffffffffffffffffffffffffffff021916908373ffffffffffffffffffffffffffffffffffffffff160217905550808273ffffffffffffffffffffffffffffffffffffffff168473ffffffffffffffffffffffffffffffffffffffff167fddf252ad1be2c89b69c2b068fc378daa952ba7f163c4a11628f55a4df523b3ef60405160405180910390a46118a3838383611ed5565b505050565b8173ffffffffffffffffffffffffffffffffffffffff168373ffffffffffffffffffffffffffffffffffffffff161415611917576040517f08c379a000000000000000000000000000000000000000000000000000000000815260040161190e90612fd4565b60405180910390fd5b80600560008573ffffffffffffffffffffffffffffffffffffffff1673ffffffffffffffffffffffffffffffffffffffff16815260200190815260200160002060008473ffffffffffffffffffffffffffffffffffffffff1673ffffffffffffffffffffffffffffffffffffffff16815260200190815260200160002060006101000a81548160ff0219169083151502179055508173ffffffffffffffffffffffffffffffffffffffff168373ffffffffffffffffffffffffffffffffffffffff167f17307eab39ab6107e8899845ad3d59bd9653f200f220920489ca2b5937696c3183604051611a089190612ed9565b60405180910390a3505050565b611a20848484611641565b611a2c84848484611eda565b611a6b576040517f08c379a0000000000000000000000000000000000000000000000000000000008152600401611a6290612f54565b60405180910390fd5b50505050565b606060405180602001604052806000815250905090565b6060611a9382611436565b611ad2576040517f08c379a0000000000000000000000000000000000000000000000000000000008152600401611ac990613114565b60405180910390fd5b6000611adc611a71565b90506000815111611afc5760405180602001604052806000815250611b27565b80611b0684612071565b604051602001611b17929190612d12565b6040516020818303038152906040525b915050919050565b60606000611b6584611b4087612071565b604051602001611b51929190612d12565b60405160208183030381529060405261221e565b9050825181611b749190613529565b9050828181518110611baf577f4e487b7100000000000000000000000000000000000000000000000000000000600052603260045260246000fd5b60200260200101519150509392505050565b6060600082511415611be457604051806020016040528060008152509050611d5b565b6000604051806060016040528060408152602001613e046040913990506000600360028551611c13919061328e565b611c1d91906132e4565b6004611c299190613315565b90506000602082611c3a919061328e565b67ffffffffffffffff811115611c79577f4e487b7100000000000000000000000000000000000000000000000000000000600052604160045260246000fd5b6040519080825280601f01601f191660200182016040528015611cab5781602001600182028036833780820191505090505b509050818152600183018586518101602084015b81831015611d1a576003830192508251603f8160121c168501518253600182019150603f81600c1c168501518253600182019150603f8160061c168501518253600182019150603f8116850151825360018201915050611cbf565b600389510660018114611d345760028114611d4457611d4f565b613d3d60f01b6002830352611d4f565b603d60f81b60018303525b50505050508093505050505b919050565b611d7a828260405180602001604052806000815250612251565b5050565b611d8782611436565b611dc6576040517f08c379a0000000000000000000000000000000000000000000000000000000008152600401611dbd90613074565b60405180910390fd5b80600660008481526020019081526020016000209080519060200190611ded9291906124a9565b505050565b6001816000016000828254019250508190555050565b611ea2838383604051602401611e2093929190612f16565b6040516020818303038152906040527fe3849f79000000000000000000000000000000000000000000000000000000007bffffffffffffffffffffffffffffffffffffffffffffffffffffffff19166020820180517bffffffffffffffffffffffffffffffffffffffffffffffffffffffff8381831617835250505050611ea7565b505050565b60008151905060006a636f6e736f6c652e6c6f679050602083016000808483855afa5050505050565b505050565b505050565b6000611efb8473ffffffffffffffffffffffffffffffffffffffff166122ac565b15612064578373ffffffffffffffffffffffffffffffffffffffff1663150b7a02611f246114a2565b8786866040518563ffffffff1660e01b8152600401611f469493929190612e0b565b602060405180830381600087803b158015611f6057600080fd5b505af1925050508015611f9157506040513d601f19601f82011682018060405250810190611f8e91906127ed565b60015b612014573d8060008114611fc1576040519150601f19603f3d011682016040523d82523d6000602084013e611fc6565b606091505b5060008151141561200c576040517f08c379a000000000000000000000000000000000000000000000000000000000815260040161200390612f54565b60405180910390fd5b805181602001fd5b63150b7a0260e01b7bffffffffffffffffffffffffffffffffffffffffffffffffffffffff1916817bffffffffffffffffffffffffffffffffffffffffffffffffffffffff191614915050612069565b600190505b949350505050565b606060008214156120b9576040518060400160405280600181526020017f30000000000000000000000000000000000000000000000000000000000000008152509050612219565b600082905060005b600082146120eb5780806120d4906134e0565b915050600a826120e491906132e4565b91506120c1565b60008167ffffffffffffffff81111561212d577f4e487b7100000000000000000000000000000000000000000000000000000000600052604160045260246000fd5b6040519080825280601f01601f19166020018201604052801561215f5781602001600182028036833780820191505090505b5090505b6000851461221257600182612178919061336f565b9150600a856121879190613529565b6030612193919061328e565b60f81b8183815181106121cf577f4e487b7100000000000000000000000000000000000000000000000000000000600052603260045260246000fd5b60200101907effffffffffffffffffffffffffffffffffffffffffffffffffffffffffffff1916908160001a905350600a8561220b91906132e4565b9450612163565b8093505050505b919050565b6000816040516020016122319190612cfb565b6040516020818303038152906040528051906020012060001c9050919050565b61225b83836122cf565b6122686000848484611eda565b6122a7576040517f08c379a000000000000000000000000000000000000000000000000000000000815260040161229e90612f54565b60405180910390fd5b505050565b6000808273ffffffffffffffffffffffffffffffffffffffff163b119050919050565b600073ffffffffffffffffffffffffffffffffffffffff168273ffffffffffffffffffffffffffffffffffffffff16141561233f576040517f08c379a000000000000000000000000000000000000000000000000000000000815260040161233690613094565b60405180910390fd5b61234881611436565b15612388576040517f08c379a000000000000000000000000000000000000000000000000000000000815260040161237f90612f94565b60405180910390fd5b61239460008383611ed0565b6001600360008473ffffffffffffffffffffffffffffffffffffffff1673ffffffffffffffffffffffffffffffffffffffff16815260200190815260200160002060008282546123e4919061328e565b92505081905550816002600083815260200190815260200160002060006101000a81548173ffffffffffffffffffffffffffffffffffffffff021916908373ffffffffffffffffffffffffffffffffffffffff160217905550808273ffffffffffffffffffffffffffffffffffffffff16600073ffffffffffffffffffffffffffffffffffffffff167fddf252ad1be2c89b69c2b068fc378daa952ba7f163c4a11628f55a4df523b3ef60405160405180910390a46124a560008383611ed5565b5050565b8280546124b590613463565b90600052602060002090601f0160209004810192826124d7576000855561251e565b82601f106124f057805160ff191683800117855561251e565b8280016001018555821561251e579182015b8281111561251d578251825591602001919060010190612502565b5b50905061252b919061252f565b5090565b5b80821115612548576000816000905550600101612530565b5090565b600061255f61255a846131b4565b61318f565b90508281526020810184848401111561257757600080fd5b612582848285613421565b509392505050565b60008135905061259981613c53565b92915050565b6000813590506125ae81613c6a565b92915050565b6000813590506125c381613c81565b92915050565b6000815190506125d881613c81565b92915050565b600082601f8301126125ef57600080fd5b81356125ff84826020860161254c565b91505092915050565b60008135905061261781613c98565b92915050565b60006020828403121561262f57600080fd5b600061263d8482850161258a565b91505092915050565b6000806040838503121561265957600080fd5b60006126678582860161258a565b92505060206126788582860161258a565b9150509250929050565b60008060006060848603121561269757600080fd5b60006126a58682870161258a565b93505060206126b68682870161258a565b92505060406126c786828701612608565b9150509250925092565b600080600080608085870312156126e757600080fd5b60006126f58782880161258a565b94505060206127068782880161258a565b935050604061271787828801612608565b925050606085013567ffffffffffffffff81111561273457600080fd5b612740878288016125de565b91505092959194509250565b6000806040838503121561275f57600080fd5b600061276d8582860161258a565b925050602061277e8582860161259f565b9150509250929050565b6000806040838503121561279b57600080fd5b60006127a98582860161258a565b92505060206127ba85828601612608565b9150509250929050565b6000602082840312156127d657600080fd5b60006127e4848285016125b4565b91505092915050565b6000602082840312156127ff57600080fd5b600061280d848285016125c9565b91505092915050565b60006020828403121561282857600080fd5b600061283684828501612608565b91505092915050565b600061284b8383612cdd565b60208301905092915050565b612860816133ad565b82525050565b60006128718261320a565b61287b8185613250565b9350612886836131e5565b8060005b838110156128b757815161289e888261283f565b97506128a983613236565b92505060018101905061288a565b5085935050505092915050565b60006128cf82613215565b6128d98185613250565b93506128e4836131f5565b8060005b8381101561291c576128f982613616565b612903888261283f565b975061290e83613243565b9250506001810190506128e8565b5085935050505092915050565b612932816133bf565b82525050565b600061294382613220565b61294d8185613261565b935061295d818560208601613430565b61296681613629565b840191505092915050565b600061297c8261322b565b6129868185613272565b9350612996818560208601613430565b61299f81613629565b840191505092915050565b60006129b58261322b565b6129bf8185613283565b93506129cf818560208601613430565b80840191505092915050565b60006129e8602583613283565b91506129f382613647565b602582019050919050565b6000612a0b603283613272565b9150612a1682613696565b604082019050919050565b6000612a2e602583613272565b9150612a39826136e5565b604082019050919050565b6000612a51601c83613272565b9150612a5c82613734565b602082019050919050565b6000612a74604f83613283565b9150612a7f8261375d565b604f82019050919050565b6000612a97602483613272565b9150612aa2826137d2565b604082019050919050565b6000612aba601983613272565b9150612ac582613821565b602082019050919050565b6000612add602c83613272565b9150612ae88261384a565b604082019050919050565b6000612b00603883613272565b9150612b0b82613899565b604082019050919050565b6000612b23602a83613272565b9150612b2e826138e8565b604082019050919050565b6000612b46602983613272565b9150612b5182613937565b604082019050919050565b6000612b69602e83613272565b9150612b7482613986565b604082019050919050565b6000612b8c600283613283565b9150612b97826139d5565b600282019050919050565b6000612baf602083613272565b9150612bba826139fe565b602082019050919050565b6000612bd2603183613272565b9150612bdd82613a27565b604082019050919050565b6000612bf5602c83613272565b9150612c0082613a76565b604082019050919050565b6000612c18603b83613272565b9150612c2382613ac5565b604082019050919050565b6000612c3b602f83613272565b9150612c4682613b14565b604082019050919050565b6000612c5e600a83613283565b9150612c6982613b63565b600a82019050919050565b6000612c81602183613272565b9150612c8c82613b8c565b604082019050919050565b6000612ca4601d83613283565b9150612caf82613bdb565b601d82019050919050565b6000612cc7603183613272565b9150612cd282613c04565b604082019050919050565b612ce681613417565b82525050565b612cf581613417565b82525050565b6000612d0782846129aa565b915081905092915050565b6000612d1e82856129aa565b9150612d2a82846129aa565b91508190509392505050565b6000612d4282866129aa565b9150612d4e82856129aa565b9150612d5a82846129aa565b9150819050949350505050565b6000612d72826129db565b9150612d7e82846129aa565b915081905092915050565b6000612d9482612c51565b9150612da082856129aa565b9150612dab82612a67565b9150612db782846129aa565b9150612dc282612b7f565b91508190509392505050565b6000612dd982612c97565b9150612de582846129aa565b915081905092915050565b6000602082019050612e056000830184612857565b92915050565b6000608082019050612e206000830187612857565b612e2d6020830186612857565b612e3a6040830185612cec565b8181036060830152612e4c8184612938565b905095945050505050565b6000606082019050612e6c6000830186612857565b612e796020830185612cec565b8181036040830152612e8b8184612971565b9050949350505050565b60006020820190508181036000830152612eaf8184612866565b905092915050565b60006020820190508181036000830152612ed181846128c4565b905092915050565b6000602082019050612eee6000830184612929565b92915050565b60006020820190508181036000830152612f0e8184612971565b905092915050565b60006060820190508181036000830152612f308186612971565b9050612f3f6020830185612cec565b612f4c6040830184612857565b949350505050565b60006020820190508181036000830152612f6d816129fe565b9050919050565b60006020820190508181036000830152612f8d81612a21565b9050919050565b60006020820190508181036000830152612fad81612a44565b9050919050565b60006020820190508181036000830152612fcd81612a8a565b9050919050565b60006020820190508181036000830152612fed81612aad565b9050919050565b6000602082019050818103600083015261300d81612ad0565b9050919050565b6000602082019050818103600083015261302d81612af3565b9050919050565b6000602082019050818103600083015261304d81612b16565b9050919050565b6000602082019050818103600083015261306d81612b39565b9050919050565b6000602082019050818103600083015261308d81612b5c565b9050919050565b600060208201905081810360008301526130ad81612ba2565b9050919050565b600060208201905081810360008301526130cd81612bc5565b9050919050565b600060208201905081810360008301526130ed81612be8565b9050919050565b6000602082019050818103600083015261310d81612c0b565b9050919050565b6000602082019050818103600083015261312d81612c2e565b9050919050565b6000602082019050818103600083015261314d81612c74565b9050919050565b6000602082019050818103600083015261316d81612cba565b9050919050565b60006020820190506131896000830184612cec565b92915050565b60006131996131aa565b90506131a582826134af565b919050565b6000604051905090565b600067ffffffffffffffff8211156131cf576131ce6135e7565b5b6131d882613629565b9050602081019050919050565b6000819050602082019050919050565b60008190508160005260206000209050919050565b600081519050919050565b600081549050919050565b600081519050919050565b600081519050919050565b6000602082019050919050565b6000600182019050919050565b600082825260208201905092915050565b600082825260208201905092915050565b600082825260208201905092915050565b600081905092915050565b600061329982613417565b91506132a483613417565b9250827fffffffffffffffffffffffffffffffffffffffffffffffffffffffffffffffff038211156132d9576132d861355a565b5b828201905092915050565b60006132ef82613417565b91506132fa83613417565b92508261330a57613309613589565b5b828204905092915050565b600061332082613417565b915061332b83613417565b9250817fffffffffffffffffffffffffffffffffffffffffffffffffffffffffffffffff04831182151516156133645761336361355a565b5b828202905092915050565b600061337a82613417565b915061338583613417565b9250828210156133985761339761355a565b5b828203905092915050565b6000819050919050565b60006133b8826133f7565b9050919050565b60008115159050919050565b60007fffffffff0000000000000000000000000000000000000000000000000000000082169050919050565b600073ffffffffffffffffffffffffffffffffffffffff82169050919050565b6000819050919050565b82818337600083830152505050565b60005b8381101561344e578082015181840152602081019050613433565b8381111561345d576000848401525b50505050565b6000600282049050600182168061347b57607f821691505b6020821081141561348f5761348e6135b8565b5b50919050565b60006134a86134a38361363a565b6133a3565b9050919050565b6134b882613629565b810181811067ffffffffffffffff821117156134d7576134d66135e7565b5b80604052505050565b60006134eb82613417565b91507fffffffffffffffffffffffffffffffffffffffffffffffffffffffffffffffff82141561351e5761351d61355a565b5b600182019050919050565b600061353482613417565b915061353f83613417565b92508261354f5761354e613589565b5b828206905092915050565b7f4e487b7100000000000000000000000000000000000000000000000000000000600052601160045260246000fd5b7f4e487b7100000000000000000000000000000000000000000000000000000000600052601260045260246000fd5b7f4e487b7100000000000000000000000000000000000000000000000000000000600052602260045260246000fd5b7f4e487b7100000000000000000000000000000000000000000000000000000000600052604160045260246000fd5b60006136228254613495565b9050919050565b6000601f19601f8301169050919050565b60008160001c9050919050565b7f68747470733a2f2f6e6674707265766965772e30786465762e636f6465732f3f60008201527f636f64653d000000000000000000000000000000000000000000000000000000602082015250565b7f4552433732313a207472616e7366657220746f206e6f6e20455243373231526560008201527f63656976657220696d706c656d656e7465720000000000000000000000000000602082015250565b7f4552433732313a207472616e736665722066726f6d20696e636f72726563742060008201527f6f776e6572000000000000000000000000000000000000000000000000000000602082015250565b7f4552433732313a20746f6b656e20616c7265616479206d696e74656400000000600082015250565b7f222c20226465736372697074696f6e223a20224d696e696d616c20737175617260008201527f6564204e4654732e222c2022696d616765223a2022646174613a696d6167652f60208201527f7376672b786d6c3b6261736536342c0000000000000000000000000000000000604082015250565b7f4552433732313a207472616e7366657220746f20746865207a65726f2061646460008201527f7265737300000000000000000000000000000000000000000000000000000000602082015250565b7f4552433732313a20617070726f766520746f2063616c6c657200000000000000600082015250565b7f4552433732313a206f70657261746f7220717565727920666f72206e6f6e657860008201527f697374656e7420746f6b656e0000000000000000000000000000000000000000602082015250565b7f4552433732313a20617070726f76652063616c6c6572206973206e6f74206f7760008201527f6e6572206e6f7220617070726f76656420666f7220616c6c0000000000000000602082015250565b7f4552433732313a2062616c616e636520717565727920666f7220746865207a6560008201527f726f206164647265737300000000000000000000000000000000000000000000602082015250565b7f4552433732313a206f776e657220717565727920666f72206e6f6e657869737460008201527f656e7420746f6b656e0000000000000000000000000000000000000000000000602082015250565b7f45524337323155524953746f726167653a2055524920736574206f66206e6f6e60008201527f6578697374656e7420746f6b656e000000000000000000000000000000000000602082015250565b7f227d000000000000000000000000000000000000000000000000000000000000600082015250565b7f4552433732313a206d696e7420746f20746865207a65726f2061646472657373600082015250565b7f45524337323155524953746f726167653a2055524920717565727920666f722060008201527f6e6f6e6578697374656e7420746f6b656e000000000000000000000000000000602082015250565b7f4552433732313a20617070726f76656420717565727920666f72206e6f6e657860008201527f697374656e7420746f6b656e0000000000000000000000000000000000000000602082015250565b7f546865726520617265206e6f74206d6f726520617661696c61626c6520546f6b60008201527f656e732e2031302f31302068617665206265656e206d696e7465640000000000602082015250565b7f4552433732314d657461646174613a2055524920717565727920666f72206e6f60008201527f6e6578697374656e7420746f6b656e0000000000000000000000000000000000602082015250565b7f7b226e616d65223a202200000000000000000000000000000000000000000000600082015250565b7f4552433732313a20617070726f76616c20746f2063757272656e74206f776e6560008201527f7200000000000000000000000000000000000000000000000000000000000000602082015250565b7f646174613a6170706c69636174696f6e2f6a736f6e3b6261736536342c000000600082015250565b7f4552433732313a207472616e736665722063616c6c6572206973206e6f74206f60008201527f776e6572206e6f7220617070726f766564000000000000000000000000000000602082015250565b613c5c816133ad565b8114613c6757600080fd5b50565b613c73816133bf565b8114613c7e57600080fd5b50565b613c8a816133cb565b8114613c9557600080fd5b50565b613ca181613417565b8114613cac57600080fd5b5056fe416e204e465420772f20494420257320686173206265656e206d696e74656420746f2025733c73766720786d6c6e733d27687474703a2f2f7777772e77332e6f72672f323030302f73766727207072657365727665417370656374526174696f3d27784d696e594d696e206d656574272076696577426f783d273020302033353020333530273e3c7374796c653e2e62617365207b2066696c6c3a2077686974653b20666f6e742d66616d696c793a2073657269663b20666f6e742d73697a653a20323470783b207d3c2f7374796c653e3c726563742077696474683d273130302527206865696768743d2731303025272066696c6c3d27626c61636b27202f3e3c7465787420783d273530252720793d273530252720636c6173733d27626173652720646f6d696e616e742d626173656c696e653d276d6964646c652720746578742d616e63686f723d276d6964646c65273e4142434445464748494a4b4c4d4e4f505152535455565758595a6162636465666768696a6b6c6d6e6f707172737475767778797a303132333435363738392b2fa2646970667358221220265379bf5c1c65c245f1393f3f55b39e6dbe4acb494b1aa315ca5262d9b5de7364736f6c6343000801003354686973206973206d79204545416c69656e204e465420636f6e74726163742e20576f616821",
  "linkReferences": {},
  "deployedLinkReferences": {}
}